{
  "contractName": "hello",
  "abi": [
    {
      "constant": true,
      "inputs": [],
      "name": "balance",
      "outputs": [
        {
          "name": "",
          "type": "uint256"
        }
      ],
      "payable": false,
      "stateMutability": "view",
      "type": "function"
    },
    {
      "inputs": [],
      "payable": false,
      "stateMutability": "nonpayable",
      "type": "constructor"
    }
  ],
  "bytecode": "0x60606040523415600e57600080fd5b6103e8600081905550609c806100256000396000f300606060405260043610603f576000357c0100000000000000000000000000000000000000000000000000000000900463ffffffff168063b69ef8a8146044575b600080fd5b3415604e57600080fd5b6054606a565b6040518082815260200191505060405180910390f35b600054815600a165627a7a723058209324e05856a1b7b5079e170dcffb96306ddd8563c2ad5b4401d03d4701fe15cf0029",
  "source": "pragma solidity ^0.4.8;\n\n\ncontract hello {\n\n\tuint public balance;\n\tfunction hello() {\n\t\tbalance = 1000;\n\t}\n}\n\n",
  "sourcePath": "/Users/shanku/Documents/XcodeProjects/UdacityTest/foss/fosscafe-solidity/contracts/hello.sol",
  "compiler": {
    "name": "solc",
    "version": "0.4.18+commit.9cf6e910.Emscripten.clang"
  },
  "schemaVersion": "1.0.1",
  "updatedAt": "2017-11-26T08:40:10.296Z"
}